:03000000021219D0
:0C121900787FE4F6D8FD75811B02000E02
:10100D0091E998139DE8A374A89FAD8BB225B6887E
:10101D00BAAABE8CC23BC5B1C8F4CC0DCEF8D1B7BF
:10102D00D450D6C3D915DB44DD53DF46E11CE2D8DD
:10103D00E47BE607E77CE8DCEA28EB62EC8AEDA2CC
:10104D00EEAAEFA3F08EF16CF23DF303F3BEF46E56
:10105D00F514F5B1F645F6D1F755F7D1F847F8B6D1
:10106D00F91FF982F9DFFA37FA8AFAD9FB23FB68FF
:10107D00FBAAFBE9FC23FC5BFC8FFCC1FCEFFD1B19
:10108D00FD45FD6CFD91FDB4FDD5FDF4FE12FE2D6B
:10109D00FE48FE60FE78FE8EFEA3FEB6FEC9FEDAA9
:1010AD00FEEBFEFAFF09FF17FF24FF30FF3CFF4761
:1010BD00FF51FF5BFF64FF6DFF75FF7DFF84FF8BAD
:0810CD00FF92FF98FF9EFFA3B4
:10000E001211DC7F2A7E001200037F2B7E0012125B
:10001E00077D047C007F307E00120F027F087E0079
:10002E001211BC7D047C007F2F7E00120F027D0416
:10003E007C007F2E7E00120F027F047E001211BC08
:10004E007D047C007F2B7E00120F027D047C007FDE
:10005E002C7E00120F027D047C007F2B7E00120F7F
:10006E00027F027E001211BC7D027C007F2E7E007C
:10007E00120F027D047C007F307E00120F027D0481
:10008E007C007F337E00120F027D047C007F377E62
:10009E0000120F027F047E001211BC7D047C007FD3
:1000AE00337E00120F027F047E001211BC7D047C91
:1000BE00007F357E00120F027F047E001211BC7D80
:1000CE00047C007F377E00120F027D047C007F339C
:1000DE007E00120F027D067C007F307E00120F0222
:1000EE007D027C007F307E00120F027D047C007F3B
:1000FE002B7E00120F027D047C007F337E00120FD8
:10010E00027D047C007F327E00120F027D047C0093
:10011E007F327E00120F027D087C007F2E7E001241
:10012E000F027D047C007F2B7E00120F027F0C7E5F
:10013E00001211BC7F297E001212077D067C007F03
:10014E00307E00120F027D027C007F307E00120F87
:10015E00027D047C007F307E00120F027D047C0045
:10016E007F2F7E00120F027D027C007F2E7E0012FA
:10017E000F027F027E001211BC7D047C007F2B7E5D
:10018E0000120F027D047C007F297E00120F027D7B
:10019E00047C007F2B7E00120F027D047C007F29E1
:1001AE007E00120F027F027E001211BC7D027C00C7
:1001BE007F2B7E00120F027D047C007F2E7E0012AC
:1001CE000F027D047C007F307E00120F027D047CC6
:1001DE00007F377E00120F027F047E001211BC7D5D
:1001EE00047C007F3A7E00120F027D047C007F3774
:1001FE007E00120F027D047C007F357E00120F02FE
:10020E007F047E001211BC7D047C007F357E0012BF
:10021E000F027D047C007F377E00120F027D047C6E
:10022E00007F337E00120F027F047E001211BC7D10
:10023E00047C007F307E00120F027D047C007F2B39
:10024E007E00120F027D067C007F2E7E00120F02B2
:10025E007D027C007F2E7E00120F027D047C007FCB
:10026E002B7E00120F027D047C007F2E7E00120F6B
:10027E00027D047C007F307E00120F027F0C7E0018
:10028E001211BC7F2B7E001212077D047C007F3A78
:10029E007E00120F027F087E001211BC7D047C00CE
:1002AE007F377E00120F027D047C007F357E0012A8
:1002BE000F027F047E001211BC7D047C007F327E13
:1002CE0000120F027D047C007F327E00120F027D31
:1002DE00047C007F337E00120F027D027C007F3291
:1002EE007E00120F027D027C007F327E00120F0212
:1002FE007D047C007F337E00120F027D047C007F24
:10030E002E7E00120F027D047C007F377E00120FBE
:10031E00027F047E001211BC7D047C007F337E00C0
:10032E00120F027D047C007F337E00120F027D04CB
:10033E007C007F357E00120F027F047E001211BCFE
:10034E007D047C007F377E00120F027D047C007FCF
:10035E00337E00120F027D047C007F307E00120F70
:10036E00027F047E001211BC7D047C007F2B7E0078
:10037E00120F027D047C007F337E00120F027D0679
:10038E007C007F327E00120F027D027C007F327E67
:10039E0000120F027D067C007F2E7E00120F027D62
:1003AE00027C007F2E7E00120F027D047C007F2BCC
:1003BE007E00120F027F0C7E001211BC7F297E0080
:1003CE001212077D067C007F307E00120F027D0226
:1003DE007C007F307E00120F027D047C007F307E19
:1003EE0000120F027D047C007F2F7E00120F027D13
:1003FE00047C007F2E7E00120F027F047E001211FD
:10040E00BC7D047C007F297E00120F027D047C00DF
:10041E007F2B7E00120F027D067C007F297E00124C
:10042E000F027D027C007F2B7E00120F027D047C6A
:10043E00007F2E7E00120F027D047C007F307E0036
:10044E00120F027D047C007F377E00120F027F04A4
:10045E007E001211BC7D047C007F3A7E00120F02DA
:10046E007D047C007F377E00120F027D047C007FAE
:10047E00357E00120F027F047E001211BC7D047CBB
:10048E00007F357E00120F027D047C007F377E00D8
:10049E00120F027D047C007F337E00120F027D045A
:1004AE007C007F337E00120F027D047C007F307E45
:1004BE0000120F027D027C007F2B7E00120F027D48
:1004CE00027C007F2B7E00120F027D067C007F2EA9
:1004DE007E00120F027D027C007F2E7E00120F0224
:1004EE007D047C007F2B7E00120F027D047C007F3A
:1004FE002B7E00120F027D047C007F307E00120FD7
:10050E00027F047E001211BC7F277E001212077D2F
:10051E00047C007F277E00120F027D047C007F2763
:10052E007E00120F027D047C007F297E00120F02D6
:10053E007D047C007F2B7E00120F027D047C007FE9
:10054E002B7E00120F027D047C007F2E7E00120F88
:10055E00027D047C007F2E7E00120F027D047C0043
:10056E007F307E00120F027D047C007F2E7E0012F3
:10057E000F027D047C007F307E00120F027D047C12
:10058E00007F327E00120F027D047C007F337E00DE
:10059E00120F027D047C007F327E00120F027D045A
:1005AE007C007F2E7E00120F027D047C007F2B7E4E
:1005BE0000120F027F047E001211BC7F277E0012F4
:1005CE0012077D047C007F2E7E00120F027D047CBC
:1005DE00007F277E00120F027D067C007F277E00A3
:1005EE00120F027D027C007F277E00120F027D0417
:1005FE007C007F297E00120F027D047C007F2B7E03
:10060E0000120F027D067C007F2E7E00120F027DEF
:10061E00027C007F2E7E00120F027D047C007F2B59
:10062E007E00120F027D047C007F2E7E00120F02D0
:10063E007D067C007F327E00120F027D027C007FE1
:10064E00337E00120F027D047C007F327E00120F7B
:10065E00027D047C007F2E7E00120F027D047C0042
:10066E007F2B7E00120F027F047E001211BC7F27AB
:10067E007E001212077D047C007F277E00120F027F
:10068E007D047C007F277E00120F027D047C007F9C
:10069E00297E00120F027D047C007F2B7E00120F3C
:1006AE00027D047C007F2B7E00120F027D047C00F5
:1006BE007F2E7E00120F027D047C007F2E7E0012A4
:1006CE000F027D047C007F307E00120F027D047CC1
:1006DE00007F2E7E00120F027D047C007F307E0094
:1006EE00120F027D047C007F327E00120F027D0409
:1006FE007C007F337E00120F027D047C007F327EF1
:10070E0000120F027D047C007F377E00120F027DE7
:10071E00047C007F357E00120F027F047E001211D2
:10072E00BC7F277E001212077D047C007F327E0084
:10073E00120F027D047C007F2E7E00120F027D04BC
:10074E007C007F307E00120F027D047C007F307EA5
:10075E0000120F027D047C007F277E00120F027FA5
:10076E00047E001211BC7D027C007F297E00120FD8
:10077E00027D027C007F297E00120F027D027C002A
:10078E007F297E00120F027D027C007F277E0012E1
:10079E000F027D047C007F297E00120F027D047CF7
:1007AE00007F2B7E00120F027D067C007F2E7E00C6
:1007BE00120F027D027C007F307E00120F027D043C
:1007CE007C007F2E7E00120F027D047C007F2B7E2C
:1007DE0000120F027D047C007F307E00120F027F1C
:1007EE00047E001211BC7F2B7E001212077D087C46
:1007FE00007F377E00120F027D067C007F357E0063
:10080E00120F027D027C007F337E00120F027D04E8
:10081E007C007F357E00120F027D047C007F377EC8
:10082E0000120F027D087C007F2B7E00120F027DCE
:10083E00067C007F2D7E00120F027D027C007F2D34
:10084E007E00120F027D067C007F307E00120F02AA
:10085E007D027C007F307E00120F027D087C007FBF
:10086E00377E00120F027D087C007F357E00120F4E
:10087E00027D087C007F3A7E00120F027D087C000C
:10088E007F327E00120F027D087C007F337E0012C5
:10089E000F027D047C007F327E00120F027D047CED
:1008AE00007F2E7E00120F027D047C007F2B7E00C7
:1008BE00120F027D047C007F2E7E00120F027D043B
:1008CE007C007F307E00120F027F047E001211BC6E
:1008DE007F2E7E001212077D087C007F377E00126D
:1008EE000F027D087C007F357E00120F027D087C92
:1008FE00007F3A7E00120F027D047C007F357E0061
:10090E00120F027F027E001211BC7D027C007F3727
:10091E007E00120F027D047C007F3A7E00120F02D1
:10092E007D047C007F3C7E00120F027D047C007FE4
:10093E00377E00120F027F047E001211BC7D047CF4
:10094E00007F377E00120F027D027C007F3A7E0010
:10095E00120F027D027C007F3A7E00120F027D068E
:10096E007C007F3C7E00120F027D027C007F3C7E6D
:10097E0000120F027D087C007F3C7E00120F027D6C
:10098E00087C007F3A7E00120F027D067C007F37C6
:10099E007E00120F027D027C007F377E00120F0256
:1009AE007D087C007F357E00120F027D087C007F63
:1009BE00377E00120F027D047C007F357E00120F01
:1009CE00027D047C007F337E00120F027D047C00CA
:1009DE007F307E00120F027D047C007F2E7E00127F
:1009EE000F027D087C007F307E00120F027D087C96
:1009FE00007F307E00120F027D067C007F2E7E006F
:100A0E00120F027D027C007F377E00120F027D04E2
:100A1E007C007F357E00120F027D027C007F337ECC
:100A2E0000120F027D027C007F337E00120F027DCA
:100A3E00047C007F307E00120F027D027C007F332B
:100A4E007E00120F027D027C007F337E00120F02A9
:100A5E007D047C007F307E00120F027D027C007FC1
:100A6E002E7E00120F027D027C007F2E7E00120F62
:100A7E00027D047C007F307E00120F027F2B7E00F1
:100A8E001212077D047C007F2B7E00120F027D0662
:100A9E007C007F2E7E00120F027D027C007F2E7E58
:100AAE0000120F027D067C007F307E00120F027D49
:100ABE00027C007F307E00120F027D087C007F37A3
:100ACE007E00120F027D087C007F357E00120F0221
:100ADE007D087C007F3A7E00120F027D087C007F2D
:100AEE00327E00120F027D087C007F337E00120FD3
:100AFE00027D047C007F327E00120F027D047C009A
:100B0E007F2E7E00120F027D047C007F2B7E001252
:100B1E000F027D047C007F2E7E00120F027D047C6E
:100B2E00007F307E00120F027F047E001211BC7D0A
:100B3E00047C007F377E00120F027D047C007F351F
:100B4E007E00120F027D047C007F357E00120F02A4
:100B5E007F047E001211BC7D087C007F3A7E00125D
:100B6E000F027D067C007F357E00120F027D027C17
:100B7E00007F377E00120F027D047C007F3A7E00DC
:100B8E00120F027D047C007F3C7E00120F027D045A
:100B9E007C007F377E00120F027F047E001211BC94
:100BAE007F2E7E001212077D047C007F377E00129E
:100BBE000F027D027C007F3A7E00120F027D027CC6
:100BCE00007F3A7E00120F027D067C007F3C7E0085
:100BDE00120F027D027C007F3C7E00120F027D040C
:100BEE007C007F3C7E00120F027F047E001211BC3F
:100BFE007D047C007F3A7E00120F027F047E00127D
:100C0E0011BC7D067C007F377E00120F027D027CB8
:100C1E00007F377E00120F027D047C007F357E0040
:100C2E00120F027F047E001211BC7D087C007F37FC
:100C3E007E00120F027D047C007F357E00120F02B3
:100C4E007D047C007F337E00120F027D047C007FCA
:100C5E00307E00120F027D047C007F2E7E00120F6C
:100C6E00027D047C007F307E00120F027F047E0026
:100C7E001211BC7D087C007F307E00120F027D06B3
:100C8E007C007F2E7E00120F027D027C007F377E5D
:100C9E0000120F027D047C007F357E00120F027D54
:100CAE00027C007F337E00120F027D027C007F33B8
:100CBE007E00120F027D047C007F307E00120F0238
:100CCE007D027C007F337E00120F027D027C007F4E
:100CDE00337E00120F027D047C007F307E00120FE7
:100CEE00027D027C007F2E7E00120F027D027C00B0
:100CFE007F2E7E00120F027D047C007F307E00125C
:0F0D0E000F027F967E001211BCE4F508F5092252
:03000B0002118A55
:10118A00C0E0C083C082C0D075D000C006E5172574
:10119A00E0240DF582E43410F583E493FE740193A0
:1011AA00F58AEEF58CB293D006D0D0D082D083D017
:0211BA00E03221
:1011DC005389F0438901758A66758CFCC28DD28C5B
:0711EC00D2A9D2AFC2B92263
:1011F300EF4E600F7D027CC7DCFEDDFCEF1F70F05D
:031203001E80ED5D
:0112060022C5
:040F02008E188F199D
:100F0600D28C8C0C8D0D20A73C20A11BC28C30A14D
:100F1600FD30A1137F197E001211F30509E5097052
:100F2600020508D28C806E20A01BC28C30A0FD303A
:100F3600A0137F197E001211F3E509150970021539
:100F460008D28C805020A64D20A124C28C30A1FD51
:100F560030A11C7F197E001211F3E51115117002E4
:100F66001510C3E50F9511F50FE50E95108022209B
:100F7600A023C28C30A0FD30A01B7F197E00121169
:100F8600F30511E51170020510250FF50FE5103573
:100F96000EF50ED28CE519240C2509F517E5192452
:100FA6000CFFE43518FEE5092FFFE5083EFEC3EF0A
:100FB600950BFFEE950AFE1210D5AC0CAD0DAE0EDC
:100FC600AF0F120EE2AC06AD07E4120E287B337AA1
:100FD600337973783F120D1D120E611211F3C28C14
:100FE600AC0CAD0DAE0EAF0F120EE2AC06AD07E4C3
:100FF600120E287BCD7ACC794C783D120D1D120E3F
:06100600611211F3D28C0F
:01100C0022C1
:1011BC008E188F19C28CE4FFFE1210D585180C8581
:1011CC00190DAC0CAD0DAE0EAF0F120EE20211F3F9
:050003008E0E8F0F229C
:10120700EF240CFFE43EFEE5092FF50BE5083EF55C
:021217000A22A9
:1010D5008E1A8F1B74FFA807088002C333D8FCFF44
:1010E500F59075B0FFC3E51B9408E51A940040140C
:1010F500E51B24F8FE74FFA806088002C333D8FC5C
:10110500F5B08F90AC0CAD0DAE0EAF0F120EE2AC7C
:1011150006AD07E4120E287BCD7ACC794C783D12CA
:101125000D1D120E611211F37590FF75B0FFAC0C19
:10113500AD0DAE0EAF0F120EE2AC06AD07E4120E0A
:10114500287BCD7ACC794C783D120D1D120E61129B
:1011550011F3AF1B74FFA807088002C333D8FCFF47
:10116500F59075B0FFC3E51B9408E51A940040148B
:10117500E51B24F8FE74FFA806088002C333D8FCDB
:05118500F5B08F90227F
:100D1D00EC4D6011E8497017ED33EC3304600DE4D0
:100D2D00FCFFFEFD22E933E8330470F8020ECD120C
:100D3D000E9858046009E4CC24815006285009020D
:100D4D000ED7284003020ED4C0E0EB4A7044B980A0
:100D5D0006D0E0FB020EC3EF4E701CBD8008EBFF0A
:100D6D00EAFEE9FD80EBE98DF0A4FEE5F0020E064A
:100D7D00E9CDF9EAFEEBFFEF89F0A4FCE5F0CE89B1
:100D8D00F0A42EFFE435F0CD89F0A42DFEE435F06E
:100D9D008067EF4E7005BD80D780C3EF8BF0A4AC9C
:100DAD00F0EE8BF0A42CFCE435F0F8EF8AF0A42CD7
:100DBD00E5F038FCE433CB8DF0A42CFCE5F03BF8EA
:100DCD00EE8AF0A42CFCE5F038F8E433CF89F0A4DA
:100DDD002CFCE5F038CF3400CE89F0A42FFFE5F0E0
:100DED003EFEE433C98DF0A42EFEE5F039CD8AF038
:100DFD00A42FFFE5F03EFEE43DFD33D0E0FB5007B0
:100E0D000BBB000F020ED7EC2CFCEF33FFEE33FEC5
:060E1D00ED33FD020EAFF3
:100E230075F020800E75F010800575F0087D007E4A
:100E3300007F003392D530D503120EF4EC3340100B
:100E4300EF33FFEE33FEED33FDEC33FCD5F0ED2253
:0E0E5300E5F0247EA2D513CC92E7CDCEFF228F
:100E6100EDD2E7CD33EC3392D524814006E4FFFE89
:100E7100FDFC22FCE4CFCECDCC24E0501174FF80E8
:100E8100EDC3CC13CCCD13CDCE13CECF13CF047085
:070E9100F030D5DE020EF483
:100E9800E9D2E7C933E833F892D5EDD2E7CD33ECA0
:070EA80033FC5002B2D52219
:100EAF00EC30E7100FBF000C0EBE00080DBD0004A4
:100EBF000BEB6014A2D5EB13FCED92E7FD2274FF50
:100ECF00FCFDFEFF22E480F8A2D574FF13FC7D80A9
:030EDF00E480EFBD
:100EE200EF8DF0A4A8F0CF8CF0A428CE8DF0A42E24
:020EF200FE22DE
:0E0EF400C3E49FFFE49EFEE49DFDE49CFC220F
:00000001FF
